{
  "address": "0x5ab9A705F63002f01C5B063De1b5024Bd37D9276",
  "abi": [
    {
      "inputs": [
        {
          "internalType": "address",
          "name": "exampleExternalContractAddress",
          "type": "address"
        }
      ],
      "stateMutability": "nonpayable",
      "type": "constructor"
    },
    {
      "anonymous": false,
      "inputs": [
        {
          "indexed": false,
          "internalType": "address",
          "name": "sender",
          "type": "address"
        },
        {
          "indexed": false,
          "internalType": "uint256",
          "name": "amount",
          "type": "uint256"
        }
      ],
      "name": "Stake",
      "type": "event"
    },
    {
      "inputs": [],
      "name": "allowingDeposit",
      "outputs": [
        {
          "internalType": "bool",
          "name": "",
          "type": "bool"
        }
      ],
      "stateMutability": "view",
      "type": "function"
    },
    {
      "inputs": [
        {
          "internalType": "address",
          "name": "",
          "type": "address"
        }
      ],
      "name": "balances",
      "outputs": [
        {
          "internalType": "uint256",
          "name": "",
          "type": "uint256"
        }
      ],
      "stateMutability": "view",
      "type": "function"
    },
    {
      "inputs": [],
      "name": "deadline",
      "outputs": [
        {
          "internalType": "uint256",
          "name": "",
          "type": "uint256"
        }
      ],
      "stateMutability": "view",
      "type": "function"
    },
    {
      "inputs": [],
      "name": "exampleExternalContract",
      "outputs": [
        {
          "internalType": "contract ExampleExternalContract",
          "name": "",
          "type": "address"
        }
      ],
      "stateMutability": "view",
      "type": "function"
    },
    {
      "inputs": [],
      "name": "execute",
      "outputs": [],
      "stateMutability": "nonpayable",
      "type": "function"
    },
    {
      "inputs": [],
      "name": "openForWithdraw",
      "outputs": [
        {
          "internalType": "bool",
          "name": "",
          "type": "bool"
        }
      ],
      "stateMutability": "view",
      "type": "function"
    },
    {
      "inputs": [],
      "name": "stake",
      "outputs": [],
      "stateMutability": "payable",
      "type": "function"
    },
    {
      "inputs": [],
      "name": "threshold",
      "outputs": [
        {
          "internalType": "uint256",
          "name": "",
          "type": "uint256"
        }
      ],
      "stateMutability": "view",
      "type": "function"
    },
    {
      "inputs": [],
      "name": "timeLeft",
      "outputs": [
        {
          "internalType": "uint256",
          "name": "",
          "type": "uint256"
        }
      ],
      "stateMutability": "view",
      "type": "function"
    },
    {
      "inputs": [],
      "name": "withdraw",
      "outputs": [],
      "stateMutability": "nonpayable",
      "type": "function"
    },
    {
      "stateMutability": "payable",
      "type": "receive"
    }
  ],
  "transactionHash": "0xfd391251616b6fcdd5722dc2e63a8a5223b39542cb3e03d83502fd8e40547484",
  "args": [
    "0xf521479645C1B4A98E36A66802359cF1B7F6884B"
  ],
  "numDeployments": 1,
  "solcInputHash": "5aab327f6326aee1c1f47e70d1da7227",
  "bytecode": "0x608060405261000f42601e610071565b6002556003805461ffff191661010017905534801561002d57600080fd5b5060405161081038038061081083398101604081905261004c91610098565b600080546001600160a01b0319166001600160a01b03929092169190911790556100c8565b8082018082111561009257634e487b7160e01b600052601160045260246000fd5b92915050565b6000602082840312156100aa57600080fd5b81516001600160a01b03811681146100c157600080fd5b9392505050565b610739806100d76000396000f3fe6080604052600436106100955760003560e01c806342cde4e81161005957806342cde4e814610213578063614619541461022f5780639876a643146102445780639f75f2271461026e578063d746a293146102a657600080fd5b80631300a6d11461018b57806327e235e3146101b357806329dcb0cf146101e05780633a4b66f1146101f65780633ccfd60b146101fe57600080fd5b366101865760008054906101000a90046001600160a01b03166001600160a01b0316639d9a7fe96040518163ffffffff1660e01b8152600401602060405180830381865afa1580156100eb573d6000803e3d6000fd5b505050506040513d601f19601f8201168201806040525081019061010f9190610611565b156101355760405162461bcd60e51b815260040161012c9061063a565b60405180910390fd5b306001600160a01b0316633a4b66f1346040518263ffffffff1660e01b81526004016000604051808303818588803b15801561017057600080fd5b505af1158015610184573d6000803e3d6000fd5b005b600080fd5b34801561019757600080fd5b506101a06102c5565b6040519081526020015b60405180910390f35b3480156101bf57600080fd5b506101a06101ce36600461067f565b60016020526000908152604090205481565b3480156101ec57600080fd5b506101a060025481565b6101846102e9565b34801561020a57600080fd5b50610184610347565b34801561021f57600080fd5b506101a0670de0b6b3a764000081565b34801561023b57600080fd5b5061018461048f565b34801561025057600080fd5b5060035461025e9060ff1681565b60405190151581526020016101aa565b34801561027a57600080fd5b5060005461028e906001600160a01b031681565b6040516001600160a01b0390911681526020016101aa565b3480156102b257600080fd5b5060035461025e90610100900460ff1681565b600060025442106102d65750600090565b426002546102e491906106be565b905090565b33600090815260016020526040812080543492906103089084906106d7565b9091555050604080513381523460208201527febedb8b3c678666e7f36970bc8f57abf6d8fa2e828c0da91ea5b75bf68ed101a910160405180910390a1565b60008054906101000a90046001600160a01b03166001600160a01b0316639d9a7fe96040518163ffffffff1660e01b8152600401602060405180830381865afa158015610398573d6000803e3d6000fd5b505050506040513d601f19601f820116820180604052508101906103bc9190610611565b156103d95760405162461bcd60e51b815260040161012c9061063a565b60035460ff161561048d573360008181526001602052604080822054905190929083908381818185875af1925050503d8060008114610434576040519150601f19603f3d011682016040523d82523d6000602084013e610439565b606091505b505090508061048a5760405162461bcd60e51b815260206004820152601860248201527f4661696c656420746f2077697468647261772045746865720000000000000000604482015260640161012c565b50505b565b60008054906101000a90046001600160a01b03166001600160a01b0316639d9a7fe96040518163ffffffff1660e01b8152600401602060405180830381865afa1580156104e0573d6000803e3d6000fd5b505050506040513d601f19601f820116820180604052508101906105049190610611565b156105215760405162461bcd60e51b815260040161012c9061063a565b306001600160a01b0316631300a6d16040518163ffffffff1660e01b8152600401602060405180830381865afa15801561055f573d6000803e3d6000fd5b505050506040513d601f19601f8201168201806040525081019061058391906106ea565b60000361048d57670de0b6b3a764000047106106025760008054906101000a90046001600160a01b03166001600160a01b031663522e1177476040518263ffffffff1660e01b81526004016000604051808303818588803b1580156105e757600080fd5b505af11580156105fb573d6000803e3d6000fd5b5050505050565b6003805460ff19166001179055565b60006020828403121561062357600080fd5b8151801515811461063357600080fd5b9392505050565b60208082526025908201527f46756e647320616c7265616479207472616e7366657272656420746f20636f6e6040820152641d1c9858dd60da1b606082015260800190565b60006020828403121561069157600080fd5b81356001600160a01b038116811461063357600080fd5b634e487b7160e01b600052601160045260246000fd5b818103818111156106d1576106d16106a8565b92915050565b808201808211156106d1576106d16106a8565b6000602082840312156106fc57600080fd5b505191905056fea26469706673582212208e5351d1bcd5cffd634c984fb573b0db1b8d9cb7db44370404883c86c94dc10b64736f6c63430008140033",
  "devdoc": {
    "kind": "dev",
    "methods": {},
    "version": 1
  },
  "userdoc": {
    "kind": "user",
    "methods": {},
    "version": 1
  },
  "storageLayout": {
    "storage": [
      {
        "astId": 19,
        "contract": "contracts/Staker.sol:Staker",
        "label": "exampleExternalContract",
        "offset": 0,
        "slot": "0",
        "type": "t_contract(ExampleExternalContract)12"
      },
      {
        "astId": 29,
        "contract": "contracts/Staker.sol:Staker",
        "label": "balances",
        "offset": 0,
        "slot": "1",
        "type": "t_mapping(t_address,t_uint256)"
      },
      {
        "astId": 38,
        "contract": "contracts/Staker.sol:Staker",
        "label": "deadline",
        "offset": 0,
        "slot": "2",
        "type": "t_uint256"
      },
      {
        "astId": 41,
        "contract": "contracts/Staker.sol:Staker",
        "label": "openForWithdraw",
        "offset": 0,
        "slot": "3",
        "type": "t_bool"
      },
      {
        "astId": 44,
        "contract": "contracts/Staker.sol:Staker",
        "label": "allowingDeposit",
        "offset": 1,
        "slot": "3",
        "type": "t_bool"
      }
    ],
    "types": {
      "t_address": {
        "encoding": "inplace",
        "label": "address",
        "numberOfBytes": "20"
      },
      "t_bool": {
        "encoding": "inplace",
        "label": "bool",
        "numberOfBytes": "1"
      },
      "t_contract(ExampleExternalContract)12": {
        "encoding": "inplace",
        "label": "contract ExampleExternalContract",
        "numberOfBytes": "20"
      },
      "t_mapping(t_address,t_uint256)": {
        "encoding": "mapping",
        "key": "t_address",
        "label": "mapping(address => uint256)",
        "numberOfBytes": "32",
        "value": "t_uint256"
      },
      "t_uint256": {
        "encoding": "inplace",
        "label": "uint256",
        "numberOfBytes": "32"
      }
    }
  }
}