{
  "address": "0xDf11fEF5AD57f1D2C178ec78E02C90A468345ae3",
  "abi": [
    {
      "inputs": [],
      "stateMutability": "payable",
      "type": "constructor"
    },
    {
      "inputs": [],
      "name": "NotEnoughEther",
      "type": "error"
    },
    {
      "anonymous": false,
      "inputs": [
        {
          "indexed": true,
          "internalType": "address",
          "name": "player",
          "type": "address"
        },
        {
          "indexed": false,
          "internalType": "uint256",
          "name": "amount",
          "type": "uint256"
        },
        {
          "indexed": false,
          "internalType": "uint256",
          "name": "roll",
          "type": "uint256"
        }
      ],
      "name": "Roll",
      "type": "event"
    },
    {
      "anonymous": false,
      "inputs": [
        {
          "indexed": false,
          "internalType": "address",
          "name": "winner",
          "type": "address"
        },
        {
          "indexed": false,
          "internalType": "uint256",
          "name": "amount",
          "type": "uint256"
        }
      ],
      "name": "Winner",
      "type": "event"
    },
    {
      "inputs": [],
      "name": "nonce",
      "outputs": [
        {
          "internalType": "uint256",
          "name": "",
          "type": "uint256"
        }
      ],
      "stateMutability": "view",
      "type": "function"
    },
    {
      "inputs": [],
      "name": "prize",
      "outputs": [
        {
          "internalType": "uint256",
          "name": "",
          "type": "uint256"
        }
      ],
      "stateMutability": "view",
      "type": "function"
    },
    {
      "inputs": [],
      "name": "rollTheDice",
      "outputs": [],
      "stateMutability": "payable",
      "type": "function"
    },
    {
      "stateMutability": "payable",
      "type": "receive"
    }
  ],
  "transactionHash": "0x46abf841ccc6f5db4f0140849e0454c7ab390d47eb3fe1d34d99726223ec0495",
  "args": [],
  "numDeployments": 1,
  "solcInputHash": "63dcd10fe5e2745a974d8b5868346450",
  "bytecode": "0x60806040526000808055600155610014610019565b610082565b606461002647600a610035565b6100309190610060565b600155565b808202811582820484141761005a57634e487b7160e01b600052601160045260246000fd5b92915050565b60008261007d57634e487b7160e01b600052601260045260246000fd5b500490565b610657806100916000396000f3fe6080604052600436106100385760003560e01c80637d789dee14610044578063affed0e01461004e578063e3ac5d261461007657600080fd5b3661003f57005b600080fd5b61004c61008c565b005b34801561005a57600080fd5b5061006460005481565b60405190815260200160405180910390f35b34801561008257600080fd5b5061006460015481565b66071afd498d00003410156100b457604051638a0d377960e01b815260040160405180910390fd5b60408051808201909152600f81526e626c6f636b206e756d62657220257360881b60208201526100ee906100e96001436104bf565b610386565b61012460405180604001604052806014815260200173646963652067616d65206164647265737320257360601b815250306103cf565b61015a60405180604001604052806012815260200171646963652067616d65206e6f6e636520257360701b815250600054610386565b60006101676001436104bf565b409050600081306000546040516020016101a69392919092835260609190911b6bffffffffffffffffffffffff19166020830152603482015260540190565b60408051601f198184030181529190528051602090910120905060006101cd6010836104ee565b905061021d604051806040016040528060018152602001600960f81b815250604051806040016040528060128152602001711010102234b1b29023b0b6b2902937b6361d60711b81525083610414565b60008054908061022c83610502565b909155506064905061023f34602861051b565b6102499190610532565b6001600082825461025a9190610546565b9091555050604080513481526020810183905233917f61cfee61b80d296eb67d23740a2278ba7f3d857fe9aa27f1ed9fe4882e254360910160405180910390a260058111156102a857505050565b600154604051600090339083908381818185875af1925050503d80600081146102ed576040519150601f19603f3d011682016040523d82523d6000602084013e6102f2565b606091505b505090508061033e5760405162461bcd60e51b81526020600482015260146024820152732330b4b632b2103a379039b2b7321022ba3432b960611b604482015260640160405180910390fd5b610346610460565b60408051338152602081018490527f9c2270628a9b29d30ae96b6c4c14ed646ee134febdce38a5b77f2bde9cea2e20910160405180910390a15050505050565b6103cb828260405160240161039c92919061059f565b60408051601f198184030181529190526020810180516001600160e01b0316632d839cb360e21b17905261047c565b5050565b6103cb82826040516024016103e59291906105c1565b60408051601f198184030181529190526020810180516001600160e01b031663319af33360e01b17905261047c565b61045b83838360405160240161042c939291906105eb565b60408051601f198184030181529190526020810180516001600160e01b0316635821efa160e01b17905261047c565b505050565b606461046d47600a61051b565b6104779190610532565b600155565b61048581610488565b50565b60006a636f6e736f6c652e6c6f679050600080835160208501845afa505050565b634e487b7160e01b600052601160045260246000fd5b818103818111156104d2576104d26104a9565b92915050565b634e487b7160e01b600052601260045260246000fd5b6000826104fd576104fd6104d8565b500690565b600060018201610514576105146104a9565b5060010190565b80820281158282048414176104d2576104d26104a9565b600082610541576105416104d8565b500490565b808201808211156104d2576104d26104a9565b6000815180845260005b8181101561057f57602081850181015186830182015201610563565b506000602082860101526020601f19601f83011685010191505092915050565b6040815260006105b26040830185610559565b90508260208301529392505050565b6040815260006105d46040830185610559565b905060018060a01b03831660208301529392505050565b6060815260006105fe6060830186610559565b82810360208401526106108186610559565b91505082604083015294935050505056fea26469706673582212201b70eb879d755cce1774dc8b0fd49d3bd38838480387340d652a6ad55824ff3c64736f6c63430008140033",
  "devdoc": {
    "kind": "dev",
    "methods": {},
    "version": 1
  },
  "userdoc": {
    "kind": "user",
    "methods": {},
    "version": 1
  },
  "storageLayout": {
    "storage": [
      {
        "astId": 183,
        "contract": "contracts/DiceGame.sol:DiceGame",
        "label": "nonce",
        "offset": 0,
        "slot": "0",
        "type": "t_uint256"
      },
      {
        "astId": 186,
        "contract": "contracts/DiceGame.sol:DiceGame",
        "label": "prize",
        "offset": 0,
        "slot": "1",
        "type": "t_uint256"
      }
    ],
    "types": {
      "t_uint256": {
        "encoding": "inplace",
        "label": "uint256",
        "numberOfBytes": "32"
      }
    }
  }
}